{
  "_format": "hh-sol-artifact-1",
  "contractName": "NFTStore",
  "sourceName": "contracts/NFTStore.sol",
  "abi": [
    {
      "inputs": [
        {
          "internalType": "address",
          "name": "storeCreator",
          "type": "address"
        },
        {
          "internalType": "uint8",
          "name": "storeId",
          "type": "uint8"
        }
      ],
      "stateMutability": "nonpayable",
      "type": "constructor"
    },
    {
      "anonymous": false,
      "inputs": [
        {
          "indexed": true,
          "internalType": "address",
          "name": "storeAddress",
          "type": "address"
        },
        {
          "indexed": true,
          "internalType": "address",
          "name": "collectionAddress",
          "type": "address"
        },
        {
          "indexed": false,
          "internalType": "uint8",
          "name": "collectionId",
          "type": "uint8"
        },
        {
          "indexed": false,
          "internalType": "address",
          "name": "to",
          "type": "address"
        },
        {
          "indexed": false,
          "internalType": "uint96",
          "name": "_royaltyPercentage",
          "type": "uint96"
        },
        {
          "indexed": false,
          "internalType": "string",
          "name": "metadataURI",
          "type": "string"
        }
      ],
      "name": "ItemMinted",
      "type": "event"
    },
    {
      "anonymous": false,
      "inputs": [
        {
          "indexed": true,
          "internalType": "bytes32",
          "name": "role",
          "type": "bytes32"
        },
        {
          "indexed": true,
          "internalType": "bytes32",
          "name": "previousAdminRole",
          "type": "bytes32"
        },
        {
          "indexed": true,
          "internalType": "bytes32",
          "name": "newAdminRole",
          "type": "bytes32"
        }
      ],
      "name": "RoleAdminChanged",
      "type": "event"
    },
    {
      "anonymous": false,
      "inputs": [
        {
          "indexed": true,
          "internalType": "bytes32",
          "name": "role",
          "type": "bytes32"
        },
        {
          "indexed": true,
          "internalType": "address",
          "name": "account",
          "type": "address"
        },
        {
          "indexed": true,
          "internalType": "address",
          "name": "sender",
          "type": "address"
        }
      ],
      "name": "RoleGranted",
      "type": "event"
    },
    {
      "anonymous": false,
      "inputs": [
        {
          "indexed": true,
          "internalType": "bytes32",
          "name": "role",
          "type": "bytes32"
        },
        {
          "indexed": true,
          "internalType": "address",
          "name": "account",
          "type": "address"
        },
        {
          "indexed": true,
          "internalType": "address",
          "name": "sender",
          "type": "address"
        }
      ],
      "name": "RoleRevoked",
      "type": "event"
    },
    {
      "inputs": [],
      "name": "DEFAULT_ADMIN_ROLE",
      "outputs": [
        {
          "internalType": "bytes32",
          "name": "",
          "type": "bytes32"
        }
      ],
      "stateMutability": "view",
      "type": "function"
    },
    {
      "inputs": [],
      "name": "MINTER_ROLE",
      "outputs": [
        {
          "internalType": "bytes32",
          "name": "",
          "type": "bytes32"
        }
      ],
      "stateMutability": "view",
      "type": "function"
    },
    {
      "inputs": [
        {
          "internalType": "string",
          "name": "collectionName",
          "type": "string"
        },
        {
          "internalType": "string",
          "name": "collectionSymbol",
          "type": "string"
        }
      ],
      "name": "addCollection",
      "outputs": [],
      "stateMutability": "nonpayable",
      "type": "function"
    },
    {
      "inputs": [
        {
          "internalType": "uint8",
          "name": "collectionId",
          "type": "uint8"
        },
        {
          "internalType": "address[]",
          "name": "to",
          "type": "address[]"
        },
        {
          "internalType": "uint96[]",
          "name": "_royaltyPercentage",
          "type": "uint96[]"
        },
        {
          "internalType": "string[]",
          "name": "metadataURI",
          "type": "string[]"
        }
      ],
      "name": "addCollectionBatchItems",
      "outputs": [],
      "stateMutability": "nonpayable",
      "type": "function"
    },
    {
      "inputs": [
        {
          "internalType": "uint8",
          "name": "collectionId",
          "type": "uint8"
        },
        {
          "internalType": "address",
          "name": "to",
          "type": "address"
        },
        {
          "internalType": "uint96",
          "name": "_royaltyPercentage",
          "type": "uint96"
        },
        {
          "internalType": "string",
          "name": "metadataURI",
          "type": "string"
        }
      ],
      "name": "addCollectionItem",
      "outputs": [],
      "stateMutability": "nonpayable",
      "type": "function"
    },
    {
      "inputs": [
        {
          "internalType": "uint256",
          "name": "collectionId",
          "type": "uint256"
        }
      ],
      "name": "getCollectionAddress",
      "outputs": [
        {
          "internalType": "address",
          "name": "",
          "type": "address"
        }
      ],
      "stateMutability": "view",
      "type": "function"
    },
    {
      "inputs": [
        {
          "internalType": "bytes32",
          "name": "role",
          "type": "bytes32"
        }
      ],
      "name": "getRoleAdmin",
      "outputs": [
        {
          "internalType": "bytes32",
          "name": "",
          "type": "bytes32"
        }
      ],
      "stateMutability": "view",
      "type": "function"
    },
    {
      "inputs": [
        {
          "internalType": "bytes32",
          "name": "role",
          "type": "bytes32"
        },
        {
          "internalType": "address",
          "name": "account",
          "type": "address"
        }
      ],
      "name": "grantRole",
      "outputs": [],
      "stateMutability": "nonpayable",
      "type": "function"
    },
    {
      "inputs": [
        {
          "internalType": "bytes32",
          "name": "role",
          "type": "bytes32"
        },
        {
          "internalType": "address",
          "name": "account",
          "type": "address"
        }
      ],
      "name": "hasRole",
      "outputs": [
        {
          "internalType": "bool",
          "name": "",
          "type": "bool"
        }
      ],
      "stateMutability": "view",
      "type": "function"
    },
    {
      "inputs": [
        {
          "internalType": "bytes32",
          "name": "role",
          "type": "bytes32"
        },
        {
          "internalType": "address",
          "name": "account",
          "type": "address"
        }
      ],
      "name": "renounceRole",
      "outputs": [],
      "stateMutability": "nonpayable",
      "type": "function"
    },
    {
      "inputs": [
        {
          "internalType": "bytes32",
          "name": "role",
          "type": "bytes32"
        },
        {
          "internalType": "address",
          "name": "account",
          "type": "address"
        }
      ],
      "name": "revokeRole",
      "outputs": [],
      "stateMutability": "nonpayable",
      "type": "function"
    },
    {
      "inputs": [
        {
          "internalType": "bytes4",
          "name": "interfaceId",
          "type": "bytes4"
        }
      ],
      "name": "supportsInterface",
      "outputs": [
        {
          "internalType": "bool",
          "name": "",
          "type": "bool"
        }
      ],
      "stateMutability": "view",
      "type": "function"
    }
  ],
  "bytecode": "0x60806040523480156200001157600080fd5b5060405162003df238038062003df283398101604081905262000034916200014b565b62000041600033620000aa565b6200005c60008051602062003dd283398151915233620000aa565b6200007760008051602062003dd283398151915283620000aa565b6002805460ff909216600160a01b026001600160a81b03199092166001600160a01b03909316929092171790556200019a565b6000828152602081815260408083206001600160a01b038516845290915290205460ff1662000147576000828152602081815260408083206001600160a01b03851684529091529020805460ff19166001179055620001063390565b6001600160a01b0316816001600160a01b0316837f2f8788117e7eff1d82e926ec794901d17c78024a50270940304540a733656f0d60405160405180910390a45b5050565b600080604083850312156200015f57600080fd5b82516001600160a01b03811681146200017757600080fd5b602084015190925060ff811681146200018f57600080fd5b809150509250929050565b613c2880620001aa6000396000f3fe60806040523480156200001157600080fd5b5060043610620000c35760003560e01c806355b4ab3f116200007a57806355b4ab3f14620001a057806391d1485414620001b7578063a0d12fc414620001ce578063a217fddf14620001e5578063d539139314620001ee578063d547741f146200020557600080fd5b806301ffc9a714620000c8578063248a9ca314620000f45780632f2ff15d1462000129578063333671a4146200014257806336568abe1462000172578063407917eb1462000189575b600080fd5b620000df620000d936600462000b6f565b6200021c565b60405190151581526020015b60405180910390f35b6200011a6200010536600462000b9b565b60009081526020819052604090206001015490565b604051908152602001620000eb565b620001406200013a36600462000bd2565b62000254565b005b620001596200015336600462000b9b565b62000283565b6040516001600160a01b039091168152602001620000eb565b620001406200018336600462000bd2565b6200030e565b620001406200019a36600462000cc2565b62000390565b62000140620001b136600462000e84565b6200044f565b620000df620001c836600462000bd2565b62000676565b62000140620001df36600462000f8e565b6200069f565b6200011a600081565b6200011a60008051602062003bd383398151915281565b620001406200021636600462000bd2565b62000817565b60006001600160e01b03198216637965db0b60e01b14806200024e57506301ffc9a760e01b6001600160e01b03198316145b92915050565b60008281526020819052604090206001015462000272813362000841565b6200027e8383620008b0565b505050565b6001546000908210620002dd5760405162461bcd60e51b815260206004820152601f60248201527f4e465453746f72653a20494e56414c49445f434f4c4c454354494f4e5f49440060448201526064015b60405180910390fd5b60018281548110620002f357620002f362000ffb565b6000918252602090912001546001600160a01b031692915050565b6001600160a01b0381163314620003805760405162461bcd60e51b815260206004820152602f60248201527f416363657373436f6e74726f6c3a2063616e206f6e6c792072656e6f756e636560448201526e103937b632b9903337b91039b2b63360891b6064820152608401620002d4565b6200038c828262000938565b5050565b60008051602062003bd3833981519152620003ac813362000841565b600254604051600091859185916001600160a01b031690620003ce9062000b61565b620003dc9392919062001072565b604051809103906000f080158015620003f9573d6000803e3d6000fd5b506001805480820182556000919091527fb10e2d527612073b26eecdfd717e6a320cf44b4afac2b0732d9fcbe2b7fa0cf60180546001600160a01b0319166001600160a01b039290921691909117905550505050565b60008051602062003bd38339815191526200046b813362000841565b60015460ff861610620004c15760405162461bcd60e51b815260206004820152601a60248201527f4e465453746f72653a20494e56414c49445f53544f52455f49440000000000006044820152606401620002d4565b8251845114620005145760405162461bcd60e51b815260206004820152601c60248201527f4e465453746f72653a20494e56414c49445f41525241595f53495a45000000006044820152606401620002d4565b8151845114620005675760405162461bcd60e51b815260206004820152601c60248201527f4e465453746f72653a20494e56414c49445f41525241595f53495a45000000006044820152606401620002d4565b60005b84518110156200066e5760018660ff16815481106200058d576200058d62000ffb565b60009182526020909120015485516001600160a01b0390911690631b2a61b790879084908110620005c257620005c262000ffb565b6020026020010151858481518110620005df57620005df62000ffb565b6020026020010151878581518110620005fc57620005fc62000ffb565b60200260200101516040518463ffffffff1660e01b81526004016200062493929190620010b4565b600060405180830381600087803b1580156200063f57600080fd5b505af115801562000654573d6000803e3d6000fd5b505050508080620006659062001109565b9150506200056a565b505050505050565b6000918252602082815260408084206001600160a01b0393909316845291905290205460ff1690565b60008051602062003bd3833981519152620006bb813362000841565b60015460ff861610620007115760405162461bcd60e51b815260206004820152601a60248201527f4e465453746f72653a20494e56414c49445f53544f52455f49440000000000006044820152606401620002d4565b60018560ff16815481106200072a576200072a62000ffb565b600091825260209091200154604051631b2a61b760e01b81526001600160a01b0390911690631b2a61b7906200076990879086908890600401620010b4565b600060405180830381600087803b1580156200078457600080fd5b505af115801562000799573d6000803e3d6000fd5b5050505060018560ff1681548110620007b657620007b662000ffb565b6000918252602090912001546040516001600160a01b039091169030907f5eb4427d436960c0a559abaaa97b6addf0f04cbb8bda05127b3e70a767d48b14906200080890899089908990899062001127565b60405180910390a35050505050565b60008281526020819052604090206001015462000835813362000841565b6200027e838362000938565b6200084d828262000676565b6200038c5762000868816001600160a01b03166014620009a0565b62000875836020620009a0565b604051602001620008889291906200116f565b60408051601f198184030181529082905262461bcd60e51b8252620002d491600401620011e8565b620008bc828262000676565b6200038c576000828152602081815260408083206001600160a01b03851684529091529020805460ff19166001179055620008f43390565b6001600160a01b0316816001600160a01b0316837f2f8788117e7eff1d82e926ec794901d17c78024a50270940304540a733656f0d60405160405180910390a45050565b62000944828262000676565b156200038c576000828152602081815260408083206001600160a01b0385168085529252808320805460ff1916905551339285917ff6391f5c32d9c69d2a47ea670b442974b53935d1edc7fd64eb21e047a839171b9190a45050565b60606000620009b1836002620011fd565b620009be9060026200121f565b67ffffffffffffffff811115620009d957620009d962000c01565b6040519080825280601f01601f19166020018201604052801562000a04576020820181803683370190505b509050600360fc1b8160008151811062000a225762000a2262000ffb565b60200101906001600160f81b031916908160001a905350600f60fb1b8160018151811062000a545762000a5462000ffb565b60200101906001600160f81b031916908160001a905350600062000a7a846002620011fd565b62000a879060016200121f565b90505b600181111562000b09576f181899199a1a9b1b9c1cb0b131b232b360811b85600f166010811062000abf5762000abf62000ffb565b1a60f81b82828151811062000ad85762000ad862000ffb565b60200101906001600160f81b031916908160001a90535060049490941c9362000b01816200123a565b905062000a8a565b50831562000b5a5760405162461bcd60e51b815260206004820181905260248201527f537472696e67733a20686578206c656e67746820696e73756666696369656e746044820152606401620002d4565b9392505050565b61297e806200125583390190565b60006020828403121562000b8257600080fd5b81356001600160e01b03198116811462000b5a57600080fd5b60006020828403121562000bae57600080fd5b5035919050565b80356001600160a01b038116811462000bcd57600080fd5b919050565b6000806040838503121562000be657600080fd5b8235915062000bf86020840162000bb5565b90509250929050565b634e487b7160e01b600052604160045260246000fd5b604051601f8201601f1916810167ffffffffffffffff8111828210171562000c435762000c4362000c01565b604052919050565b600082601f83011262000c5d57600080fd5b813567ffffffffffffffff81111562000c7a5762000c7a62000c01565b62000c8f601f8201601f191660200162000c17565b81815284602083860101111562000ca557600080fd5b816020850160208301376000918101602001919091529392505050565b6000806040838503121562000cd657600080fd5b823567ffffffffffffffff8082111562000cef57600080fd5b62000cfd8683870162000c4b565b9350602085013591508082111562000d1457600080fd5b5062000d238582860162000c4b565b9150509250929050565b803560ff8116811462000bcd57600080fd5b600067ffffffffffffffff82111562000d5c5762000d5c62000c01565b5060051b60200190565b80356001600160601b038116811462000bcd57600080fd5b600082601f83011262000d9057600080fd5b8135602062000da962000da38362000d3f565b62000c17565b82815260059290921b8401810191818101908684111562000dc957600080fd5b8286015b8481101562000def5762000de18162000d66565b835291830191830162000dcd565b509695505050505050565b600082601f83011262000e0c57600080fd5b8135602062000e1f62000da38362000d3f565b82815260059290921b8401810191818101908684111562000e3f57600080fd5b8286015b8481101562000def57803567ffffffffffffffff81111562000e655760008081fd5b62000e758986838b010162000c4b565b84525091830191830162000e43565b6000806000806080858703121562000e9b57600080fd5b62000ea68562000d2d565b935060208086013567ffffffffffffffff8082111562000ec557600080fd5b818801915088601f83011262000eda57600080fd5b813562000eeb62000da38262000d3f565b81815260059190911b8301840190848101908b83111562000f0b57600080fd5b938501935b8285101562000f345762000f248562000bb5565b8252938501939085019062000f10565b97505050604088013592508083111562000f4d57600080fd5b62000f5b89848a0162000d7e565b9450606088013592508083111562000f7257600080fd5b505062000f828782880162000dfa565b91505092959194509250565b6000806000806080858703121562000fa557600080fd5b62000fb08562000d2d565b935062000fc06020860162000bb5565b925062000fd06040860162000d66565b9150606085013567ffffffffffffffff81111562000fed57600080fd5b62000f828782880162000c4b565b634e487b7160e01b600052603260045260246000fd5b60005b838110156200102e57818101518382015260200162001014565b838111156200103e576000848401525b50505050565b600081518084526200105e81602086016020860162001011565b601f01601f19169290920160200192915050565b60608152600062001087606083018662001044565b82810360208401526200109b818662001044565b91505060018060a01b0383166040830152949350505050565b6001600160a01b0384168152606060208201819052600090620010da9083018562001044565b90506001600160601b0383166040830152949350505050565b634e487b7160e01b600052601160045260246000fd5b6000600019821415620011205762001120620010f3565b5060010190565b60ff851681526001600160a01b03841660208201526001600160601b0383166040820152608060608201819052600090620011659083018462001044565b9695505050505050565b7f416363657373436f6e74726f6c3a206163636f756e7420000000000000000000815260008351620011a981601785016020880162001011565b7001034b99036b4b9b9b4b733903937b6329607d1b6017918401918201528351620011dc81602884016020880162001011565b01602801949350505050565b60208152600062000b5a602083018462001044565b60008160001904831182151516156200121a576200121a620010f3565b500290565b60008219821115620012355762001235620010f3565b500190565b6000816200124c576200124c620010f3565b50600019019056fe60806040523480156200001157600080fd5b506040516200297e3803806200297e8339810160408190526200003491620002cc565b8251839083906200004d90600290602085019062000159565b5080516200006390600390602084019062000159565b506200007591506000905033620000b4565b620000906000805160206200295e83398151915233620000b4565b620000ab6000805160206200295e83398151915282620000b4565b50505062000396565b6000828152600d602090815260408083206001600160a01b038516845290915290205460ff1662000155576000828152600d602090815260408083206001600160a01b03851684529091529020805460ff19166001179055620001143390565b6001600160a01b0316816001600160a01b0316837f2f8788117e7eff1d82e926ec794901d17c78024a50270940304540a733656f0d60405160405180910390a45b5050565b828054620001679062000359565b90600052602060002090601f0160209004810192826200018b5760008555620001d6565b82601f10620001a657805160ff1916838001178555620001d6565b82800160010185558215620001d6579182015b82811115620001d6578251825591602001919060010190620001b9565b50620001e4929150620001e8565b5090565b5b80821115620001e45760008155600101620001e9565b634e487b7160e01b600052604160045260246000fd5b600082601f8301126200022757600080fd5b81516001600160401b0380821115620002445762000244620001ff565b604051601f8301601f19908116603f011681019082821181831017156200026f576200026f620001ff565b816040528381526020925086838588010111156200028c57600080fd5b600091505b83821015620002b0578582018301518183018401529082019062000291565b83821115620002c25760008385830101525b9695505050505050565b600080600060608486031215620002e257600080fd5b83516001600160401b0380821115620002fa57600080fd5b620003088783880162000215565b945060208601519150808211156200031f57600080fd5b506200032e8682870162000215565b604086015190935090506001600160a01b03811681146200034e57600080fd5b809150509250925092565b600181811c908216806200036e57607f821691505b602082108114156200039057634e487b7160e01b600052602260045260246000fd5b50919050565b6125b880620003a66000396000f3fe608060405234801561001057600080fd5b506004361061018e5760003560e01c806342966c68116100de578063a217fddf11610097578063c87b56dd11610071578063c87b56dd1461037e578063d539139314610391578063d547741f146103b8578063e985e9c5146103cb57600080fd5b8063a217fddf14610350578063a22cb46514610358578063b88d4fde1461036b57600080fd5b806342966c68146102e95780634f6ccce7146102fc5780636352211e1461030f57806370a082311461032257806391d148541461033557806395d89b411461034857600080fd5b806323b872dd1161014b5780632f2ff15d116101255780632f2ff15d1461029d5780632f745c59146102b057806336568abe146102c357806342842e0e146102d657600080fd5b806323b872dd14610235578063248a9ca3146102485780632a55205a1461026b57600080fd5b806301ffc9a71461019357806306fdde03146101bb578063081812fc146101d0578063095ea7b3146101fb57806318160ddd146102105780631b2a61b714610222575b600080fd5b6101a66101a1366004611f2a565b610407565b60405190151581526020015b60405180910390f35b6101c3610418565b6040516101b29190611f9f565b6101e36101de366004611fb2565b6104aa565b6040516001600160a01b0390911681526020016101b2565b61020e610209366004611fe7565b610537565b005b600a545b6040519081526020016101b2565b61020e61023036600461209d565b61064d565b61020e61024336600461211f565b6106b9565b610214610256366004611fb2565b6000908152600d602052604090206001015490565b61027e61027936600461215b565b6106eb565b604080516001600160a01b0390931683526020830191909152016101b2565b61020e6102ab36600461217d565b610797565b6102146102be366004611fe7565b6107bd565b61020e6102d136600461217d565b610853565b61020e6102e436600461211f565b6108d1565b61020e6102f7366004611fb2565b6108ec565b61021461030a366004611fb2565b610966565b6101e361031d366004611fb2565b6109f9565b6102146103303660046121a9565b610a70565b6101a661034336600461217d565b610af7565b6101c3610b22565b610214600081565b61020e6103663660046121c4565b610b31565b61020e610379366004612200565b610b3c565b6101c361038c366004611fb2565b610b74565b6102147f9f2df0fed2c77648de5860a4cc508cd0818c85b8b8a1ab4ceeef8d981c8956a681565b61020e6103c636600461217d565b610b7f565b6101a66103d936600461227c565b6001600160a01b03918216600090815260076020908152604080832093909416825291909152205460ff1690565b600061041282610ba5565b92915050565b606060028054610427906122a6565b80601f0160208091040260200160405190810160405280929190818152602001828054610453906122a6565b80156104a05780601f10610475576101008083540402835291602001916104a0565b820191906000526020600020905b81548152906001019060200180831161048357829003601f168201915b5050505050905090565b60006104b582610bca565b61051b5760405162461bcd60e51b815260206004820152602c60248201527f4552433732313a20617070726f76656420717565727920666f72206e6f6e657860448201526b34b9ba32b73a103a37b5b2b760a11b60648201526084015b60405180910390fd5b506000908152600660205260409020546001600160a01b031690565b6000610542826109f9565b9050806001600160a01b0316836001600160a01b031614156105b05760405162461bcd60e51b815260206004820152602160248201527f4552433732313a20617070726f76616c20746f2063757272656e74206f776e656044820152603960f91b6064820152608401610512565b336001600160a01b03821614806105cc57506105cc81336103d9565b61063e5760405162461bcd60e51b815260206004820152603860248201527f4552433732313a20617070726f76652063616c6c6572206973206e6f74206f7760448201527f6e6572206e6f7220617070726f76656420666f7220616c6c00000000000000006064820152608401610512565b6106488383610be7565b505050565b7f9f2df0fed2c77648de5860a4cc508cd0818c85b8b8a1ab4ceeef8d981c8956a66106788133610c55565b6000610683600e5490565b9050610693600e80546001019055565b61069d8582610cb9565b6106a78185610cd3565b6106b2818685610d5e565b5050505050565b6106c4335b82610e6c565b6106e05760405162461bcd60e51b8152600401610512906122e1565b610648838383610f56565b60008281526001602090815260408083208151808301909252546001600160a01b038116808352600160a01b9091046001600160601b03169282019290925282916107605750604080518082019091526000546001600160a01b0381168252600160a01b90046001600160601b031660208201525b60208101516000906127109061077f906001600160601b031687612348565b610789919061237d565b915196919550909350505050565b6000828152600d60205260409020600101546107b38133610c55565b61064883836110fd565b60006107c883610a70565b821061082a5760405162461bcd60e51b815260206004820152602b60248201527f455243373231456e756d657261626c653a206f776e657220696e646578206f7560448201526a74206f6620626f756e647360a81b6064820152608401610512565b506001600160a01b03919091166000908152600860209081526040808320938352929052205490565b6001600160a01b03811633146108c35760405162461bcd60e51b815260206004820152602f60248201527f416363657373436f6e74726f6c3a2063616e206f6e6c792072656e6f756e636560448201526e103937b632b9903337b91039b2b63360891b6064820152608401610512565b6108cd8282611183565b5050565b61064883838360405180602001604052806000815250610b3c565b6108f5336106be565b61095a5760405162461bcd60e51b815260206004820152603060248201527f4552433732314275726e61626c653a2063616c6c6572206973206e6f74206f7760448201526f1b995c881b9bdc88185c1c1c9bdd995960821b6064820152608401610512565b610963816111ea565b50565b6000610971600a5490565b82106109d45760405162461bcd60e51b815260206004820152602c60248201527f455243373231456e756d657261626c653a20676c6f62616c20696e646578206f60448201526b7574206f6620626f756e647360a01b6064820152608401610512565b600a82815481106109e7576109e7612391565b90600052602060002001549050919050565b6000818152600460205260408120546001600160a01b0316806104125760405162461bcd60e51b815260206004820152602960248201527f4552433732313a206f776e657220717565727920666f72206e6f6e657869737460448201526832b73a103a37b5b2b760b91b6064820152608401610512565b60006001600160a01b038216610adb5760405162461bcd60e51b815260206004820152602a60248201527f4552433732313a2062616c616e636520717565727920666f7220746865207a65604482015269726f206164647265737360b01b6064820152608401610512565b506001600160a01b031660009081526005602052604090205490565b6000918252600d602090815260408084206001600160a01b0393909316845291905290205460ff1690565b606060038054610427906122a6565b6108cd3383836111f3565b610b463383610e6c565b610b625760405162461bcd60e51b8152600401610512906122e1565b610b6e848484846112c2565b50505050565b6060610412826112f5565b6000828152600d6020526040902060010154610b9b8133610c55565b6106488383611183565b60006001600160e01b03198216637965db0b60e01b1480610412575061041282611464565b6000908152600460205260409020546001600160a01b0316151590565b600081815260066020526040902080546001600160a01b0319166001600160a01b0384169081179091558190610c1c826109f9565b6001600160a01b03167f8c5be1e5ebec7d5bd14f71427d1e84f3dd0314c0f7b2291e5b200ac8c7c3b92560405160405180910390a45050565b610c5f8282610af7565b6108cd57610c77816001600160a01b03166014611489565b610c82836020611489565b604051602001610c939291906123a7565b60408051601f198184030181529082905262461bcd60e51b825261051291600401611f9f565b6108cd82826040518060200160405280600081525061162c565b610cdc82610bca565b610d3f5760405162461bcd60e51b815260206004820152602e60248201527f45524337323155524953746f726167653a2055524920736574206f66206e6f6e60448201526d32bc34b9ba32b73a103a37b5b2b760911b6064820152608401610512565b6000828152600c60209081526040909120825161064892840190611e45565b6127106001600160601b0382161115610dcc5760405162461bcd60e51b815260206004820152602a60248201527f455243323938313a20726f79616c7479206665652077696c6c206578636565646044820152692073616c65507269636560b01b6064820152608401610512565b6001600160a01b038216610e225760405162461bcd60e51b815260206004820152601b60248201527f455243323938313a20496e76616c696420706172616d657465727300000000006044820152606401610512565b6040805180820182526001600160a01b0393841681526001600160601b0392831660208083019182526000968752600190529190942093519051909116600160a01b029116179055565b6000610e7782610bca565b610ed85760405162461bcd60e51b815260206004820152602c60248201527f4552433732313a206f70657261746f7220717565727920666f72206e6f6e657860448201526b34b9ba32b73a103a37b5b2b760a11b6064820152608401610512565b6000610ee3836109f9565b9050806001600160a01b0316846001600160a01b03161480610f1e5750836001600160a01b0316610f13846104aa565b6001600160a01b0316145b80610f4e57506001600160a01b0380821660009081526007602090815260408083209388168352929052205460ff165b949350505050565b826001600160a01b0316610f69826109f9565b6001600160a01b031614610fcd5760405162461bcd60e51b815260206004820152602560248201527f4552433732313a207472616e736665722066726f6d20696e636f72726563742060448201526437bbb732b960d91b6064820152608401610512565b6001600160a01b03821661102f5760405162461bcd60e51b8152602060048201526024808201527f4552433732313a207472616e7366657220746f20746865207a65726f206164646044820152637265737360e01b6064820152608401610512565b61103a83838361165f565b611045600082610be7565b6001600160a01b038316600090815260056020526040812080546001929061106e90849061241c565b90915550506001600160a01b038216600090815260056020526040812080546001929061109c908490612433565b909155505060008181526004602052604080822080546001600160a01b0319166001600160a01b0386811691821790925591518493918716917fddf252ad1be2c89b69c2b068fc378daa952ba7f163c4a11628f55a4df523b3ef91a4505050565b6111078282610af7565b6108cd576000828152600d602090815260408083206001600160a01b03851684529091529020805460ff1916600117905561113f3390565b6001600160a01b0316816001600160a01b0316837f2f8788117e7eff1d82e926ec794901d17c78024a50270940304540a733656f0d60405160405180910390a45050565b61118d8282610af7565b156108cd576000828152600d602090815260408083206001600160a01b0385168085529252808320805460ff1916905551339285917ff6391f5c32d9c69d2a47ea670b442974b53935d1edc7fd64eb21e047a839171b9190a45050565b6109638161166a565b816001600160a01b0316836001600160a01b031614156112555760405162461bcd60e51b815260206004820152601960248201527f4552433732313a20617070726f766520746f2063616c6c6572000000000000006044820152606401610512565b6001600160a01b03838116600081815260076020908152604080832094871680845294825291829020805460ff191686151590811790915591519182527f17307eab39ab6107e8899845ad3d59bd9653f200f220920489ca2b5937696c31910160405180910390a3505050565b6112cd848484610f56565b6112d9848484846116aa565b610b6e5760405162461bcd60e51b81526004016105129061244b565b606061130082610bca565b6113665760405162461bcd60e51b815260206004820152603160248201527f45524337323155524953746f726167653a2055524920717565727920666f72206044820152703737b732bc34b9ba32b73a103a37b5b2b760791b6064820152608401610512565b6000828152600c60205260408120805461137f906122a6565b80601f01602080910402602001604051908101604052809291908181526020018280546113ab906122a6565b80156113f85780601f106113cd576101008083540402835291602001916113f8565b820191906000526020600020905b8154815290600101906020018083116113db57829003601f168201915b50505050509050600061141660408051602081019091526000815290565b9050805160001415611429575092915050565b81511561145b57808260405160200161144392919061249d565b60405160208183030381529060405292505050919050565b610f4e846117a8565b60006001600160e01b0319821663780e9d6360e01b148061041257506104128261187f565b60606000611498836002612348565b6114a3906002612433565b67ffffffffffffffff8111156114bb576114bb612011565b6040519080825280601f01601f1916602001820160405280156114e5576020820181803683370190505b509050600360fc1b8160008151811061150057611500612391565b60200101906001600160f81b031916908160001a905350600f60fb1b8160018151811061152f5761152f612391565b60200101906001600160f81b031916908160001a9053506000611553846002612348565b61155e906001612433565b90505b60018111156115d6576f181899199a1a9b1b9c1cb0b131b232b360811b85600f166010811061159257611592612391565b1a60f81b8282815181106115a8576115a8612391565b60200101906001600160f81b031916908160001a90535060049490941c936115cf816124cc565b9050611561565b5083156116255760405162461bcd60e51b815260206004820181905260248201527f537472696e67733a20686578206c656e67746820696e73756666696369656e746044820152606401610512565b9392505050565b611636838361188a565b61164360008484846116aa565b6106485760405162461bcd60e51b81526004016105129061244b565b6106488383836119c9565b61167381611a81565b6000818152600c60205260409020805461168c906122a6565b159050610963576000818152600c6020526040812061096391611ec9565b60006001600160a01b0384163b1561179d57604051630a85bd0160e11b81526001600160a01b0385169063150b7a02906116ee9033908990889088906004016124e3565b6020604051808303816000875af1925050508015611729575060408051601f3d908101601f1916820190925261172691810190612520565b60015b611783573d808015611757576040519150601f19603f3d011682016040523d82523d6000602084013e61175c565b606091505b50805161177b5760405162461bcd60e51b81526004016105129061244b565b805181602001fd5b6001600160e01b031916630a85bd0160e11b149050610f4e565b506001949350505050565b60606117b382610bca565b6118175760405162461bcd60e51b815260206004820152602f60248201527f4552433732314d657461646174613a2055524920717565727920666f72206e6f60448201526e3732bc34b9ba32b73a103a37b5b2b760891b6064820152608401610512565b600061182e60408051602081019091526000815290565b9050600081511161184e5760405180602001604052806000815250611625565b8061185884611a9b565b60405160200161186992919061249d565b6040516020818303038152906040529392505050565b600061041282611b99565b6001600160a01b0382166118e05760405162461bcd60e51b815260206004820181905260248201527f4552433732313a206d696e7420746f20746865207a65726f20616464726573736044820152606401610512565b6118e981610bca565b156119365760405162461bcd60e51b815260206004820152601c60248201527f4552433732313a20746f6b656e20616c7265616479206d696e746564000000006044820152606401610512565b6119426000838361165f565b6001600160a01b038216600090815260056020526040812080546001929061196b908490612433565b909155505060008181526004602052604080822080546001600160a01b0319166001600160a01b03861690811790915590518392907fddf252ad1be2c89b69c2b068fc378daa952ba7f163c4a11628f55a4df523b3ef908290a45050565b6001600160a01b038316611a2457611a1f81600a80546000838152600b60205260408120829055600182018355919091527fc65a7bb8d6351c1cf70c95a316cc6a92839c986682d98bc35f958f4883f9d2a80155565b611a47565b816001600160a01b0316836001600160a01b031614611a4757611a478382611bd9565b6001600160a01b038216611a5e5761064881611c76565b826001600160a01b0316826001600160a01b031614610648576106488282611d25565b611a8a81611d69565b600090815260016020526040812055565b606081611abf5750506040805180820190915260018152600360fc1b602082015290565b8160005b8115611ae95780611ad38161253d565b9150611ae29050600a8361237d565b9150611ac3565b60008167ffffffffffffffff811115611b0457611b04612011565b6040519080825280601f01601f191660200182016040528015611b2e576020820181803683370190505b5090505b8415610f4e57611b4360018361241c565b9150611b50600a86612558565b611b5b906030612433565b60f81b818381518110611b7057611b70612391565b60200101906001600160f81b031916908160001a905350611b92600a8661237d565b9450611b32565b60006001600160e01b031982166380ac58cd60e01b1480611bca57506001600160e01b03198216635b5e139f60e01b145b80610412575061041282611e10565b60006001611be684610a70565b611bf0919061241c565b600083815260096020526040902054909150808214611c43576001600160a01b03841660009081526008602090815260408083208584528252808320548484528184208190558352600990915290208190555b5060009182526009602090815260408084208490556001600160a01b039094168352600881528383209183525290812055565b600a54600090611c889060019061241c565b6000838152600b6020526040812054600a8054939450909284908110611cb057611cb0612391565b9060005260206000200154905080600a8381548110611cd157611cd1612391565b6000918252602080832090910192909255828152600b9091526040808220849055858252812055600a805480611d0957611d0961256c565b6001900381819060005260206000200160009055905550505050565b6000611d3083610a70565b6001600160a01b039093166000908152600860209081526040808320868452825280832085905593825260099052919091209190915550565b6000611d74826109f9565b9050611d828160008461165f565b611d8d600083610be7565b6001600160a01b0381166000908152600560205260408120805460019290611db690849061241c565b909155505060008281526004602052604080822080546001600160a01b0319169055518391906001600160a01b038416907fddf252ad1be2c89b69c2b068fc378daa952ba7f163c4a11628f55a4df523b3ef908390a45050565b60006001600160e01b0319821663152a902d60e11b148061041257506301ffc9a760e01b6001600160e01b0319831614610412565b828054611e51906122a6565b90600052602060002090601f016020900481019282611e735760008555611eb9565b82601f10611e8c57805160ff1916838001178555611eb9565b82800160010185558215611eb9579182015b82811115611eb9578251825591602001919060010190611e9e565b50611ec5929150611eff565b5090565b508054611ed5906122a6565b6000825580601f10611ee5575050565b601f01602090049060005260206000209081019061096391905b5b80821115611ec55760008155600101611f00565b6001600160e01b03198116811461096357600080fd5b600060208284031215611f3c57600080fd5b813561162581611f14565b60005b83811015611f62578181015183820152602001611f4a565b83811115610b6e5750506000910152565b60008151808452611f8b816020860160208601611f47565b601f01601f19169290920160200192915050565b6020815260006116256020830184611f73565b600060208284031215611fc457600080fd5b5035919050565b80356001600160a01b0381168114611fe257600080fd5b919050565b60008060408385031215611ffa57600080fd5b61200383611fcb565b946020939093013593505050565b634e487b7160e01b600052604160045260246000fd5b600067ffffffffffffffff8084111561204257612042612011565b604051601f8501601f19908116603f0116810190828211818310171561206a5761206a612011565b8160405280935085815286868601111561208357600080fd5b858560208301376000602087830101525050509392505050565b6000806000606084860312156120b257600080fd5b6120bb84611fcb565b9250602084013567ffffffffffffffff8111156120d757600080fd5b8401601f810186136120e857600080fd5b6120f786823560208401612027565b92505060408401356001600160601b038116811461211457600080fd5b809150509250925092565b60008060006060848603121561213457600080fd5b61213d84611fcb565b925061214b60208501611fcb565b9150604084013590509250925092565b6000806040838503121561216e57600080fd5b50508035926020909101359150565b6000806040838503121561219057600080fd5b823591506121a060208401611fcb565b90509250929050565b6000602082840312156121bb57600080fd5b61162582611fcb565b600080604083850312156121d757600080fd5b6121e083611fcb565b9150602083013580151581146121f557600080fd5b809150509250929050565b6000806000806080858703121561221657600080fd5b61221f85611fcb565b935061222d60208601611fcb565b925060408501359150606085013567ffffffffffffffff81111561225057600080fd5b8501601f8101871361226157600080fd5b61227087823560208401612027565b91505092959194509250565b6000806040838503121561228f57600080fd5b61229883611fcb565b91506121a060208401611fcb565b600181811c908216806122ba57607f821691505b602082108114156122db57634e487b7160e01b600052602260045260246000fd5b50919050565b60208082526031908201527f4552433732313a207472616e736665722063616c6c6572206973206e6f74206f6040820152701ddb995c881b9bdc88185c1c1c9bdd9959607a1b606082015260800190565b634e487b7160e01b600052601160045260246000fd5b600081600019048311821515161561236257612362612332565b500290565b634e487b7160e01b600052601260045260246000fd5b60008261238c5761238c612367565b500490565b634e487b7160e01b600052603260045260246000fd5b7f416363657373436f6e74726f6c3a206163636f756e74200000000000000000008152600083516123df816017850160208801611f47565b7001034b99036b4b9b9b4b733903937b6329607d1b6017918401918201528351612410816028840160208801611f47565b01602801949350505050565b60008282101561242e5761242e612332565b500390565b6000821982111561244657612446612332565b500190565b60208082526032908201527f4552433732313a207472616e7366657220746f206e6f6e20455243373231526560408201527131b2b4bb32b91034b6b83632b6b2b73a32b960711b606082015260800190565b600083516124af818460208801611f47565b8351908301906124c3818360208801611f47565b01949350505050565b6000816124db576124db612332565b506000190190565b6001600160a01b038581168252841660208201526040810183905260806060820181905260009061251690830184611f73565b9695505050505050565b60006020828403121561253257600080fd5b815161162581611f14565b600060001982141561255157612551612332565b5060010190565b60008261256757612567612367565b500690565b634e487b7160e01b600052603160045260246000fdfea2646970667358221220546383fc0f6f3110464109d7319756fbf0cbb54e3235430892750a5c2fcd7dd664736f6c634300080a00339f2df0fed2c77648de5860a4cc508cd0818c85b8b8a1ab4ceeef8d981c8956a69f2df0fed2c77648de5860a4cc508cd0818c85b8b8a1ab4ceeef8d981c8956a6a2646970667358221220e3b5eb058ae8a36023d567b30cd32af5ce8c3ff99932819d114c324e19badacf64736f6c634300080a00339f2df0fed2c77648de5860a4cc508cd0818c85b8b8a1ab4ceeef8d981c8956a6",
  "linkReferences": {},
  "deployedLinkReferences": {}
}